{
  "_format": "hh-sol-artifact-1",
  "contractName": "FunFT",
  "sourceName": "contracts/FunFT.sol",
  "abi": [
    {
      "inputs": [],
      "stateMutability": "nonpayable",
      "type": "constructor"
    },
    {
      "inputs": [
        {
          "internalType": "address",
          "name": "sender",
          "type": "address"
        },
        {
          "internalType": "uint256",
          "name": "tokenId",
          "type": "uint256"
        },
        {
          "internalType": "address",
          "name": "owner",
          "type": "address"
        }
      ],
      "name": "ERC721IncorrectOwner",
      "type": "error"
    },
    {
      "inputs": [
        {
          "internalType": "address",
          "name": "operator",
          "type": "address"
        },
        {
          "internalType": "uint256",
          "name": "tokenId",
          "type": "uint256"
        }
      ],
      "name": "ERC721InsufficientApproval",
      "type": "error"
    },
    {
      "inputs": [
        {
          "internalType": "address",
          "name": "approver",
          "type": "address"
        }
      ],
      "name": "ERC721InvalidApprover",
      "type": "error"
    },
    {
      "inputs": [
        {
          "internalType": "address",
          "name": "operator",
          "type": "address"
        }
      ],
      "name": "ERC721InvalidOperator",
      "type": "error"
    },
    {
      "inputs": [
        {
          "internalType": "address",
          "name": "owner",
          "type": "address"
        }
      ],
      "name": "ERC721InvalidOwner",
      "type": "error"
    },
    {
      "inputs": [
        {
          "internalType": "address",
          "name": "receiver",
          "type": "address"
        }
      ],
      "name": "ERC721InvalidReceiver",
      "type": "error"
    },
    {
      "inputs": [
        {
          "internalType": "address",
          "name": "sender",
          "type": "address"
        }
      ],
      "name": "ERC721InvalidSender",
      "type": "error"
    },
    {
      "inputs": [
        {
          "internalType": "uint256",
          "name": "tokenId",
          "type": "uint256"
        }
      ],
      "name": "ERC721NonexistentToken",
      "type": "error"
    },
    {
      "inputs": [
        {
          "internalType": "address",
          "name": "owner",
          "type": "address"
        }
      ],
      "name": "OwnableInvalidOwner",
      "type": "error"
    },
    {
      "inputs": [
        {
          "internalType": "address",
          "name": "account",
          "type": "address"
        }
      ],
      "name": "OwnableUnauthorizedAccount",
      "type": "error"
    },
    {
      "anonymous": false,
      "inputs": [
        {
          "indexed": true,
          "internalType": "address",
          "name": "owner",
          "type": "address"
        },
        {
          "indexed": true,
          "internalType": "address",
          "name": "approved",
          "type": "address"
        },
        {
          "indexed": true,
          "internalType": "uint256",
          "name": "tokenId",
          "type": "uint256"
        }
      ],
      "name": "Approval",
      "type": "event"
    },
    {
      "anonymous": false,
      "inputs": [
        {
          "indexed": true,
          "internalType": "address",
          "name": "owner",
          "type": "address"
        },
        {
          "indexed": true,
          "internalType": "address",
          "name": "operator",
          "type": "address"
        },
        {
          "indexed": false,
          "internalType": "bool",
          "name": "approved",
          "type": "bool"
        }
      ],
      "name": "ApprovalForAll",
      "type": "event"
    },
    {
      "anonymous": false,
      "inputs": [
        {
          "indexed": true,
          "internalType": "address",
          "name": "previousOwner",
          "type": "address"
        },
        {
          "indexed": true,
          "internalType": "address",
          "name": "newOwner",
          "type": "address"
        }
      ],
      "name": "OwnershipTransferred",
      "type": "event"
    },
    {
      "anonymous": false,
      "inputs": [
        {
          "indexed": true,
          "internalType": "address",
          "name": "from",
          "type": "address"
        },
        {
          "indexed": true,
          "internalType": "address",
          "name": "to",
          "type": "address"
        },
        {
          "indexed": true,
          "internalType": "uint256",
          "name": "tokenId",
          "type": "uint256"
        }
      ],
      "name": "Transfer",
      "type": "event"
    },
    {
      "inputs": [
        {
          "internalType": "address",
          "name": "to",
          "type": "address"
        },
        {
          "internalType": "uint256",
          "name": "tokenId",
          "type": "uint256"
        }
      ],
      "name": "approve",
      "outputs": [],
      "stateMutability": "nonpayable",
      "type": "function"
    },
    {
      "inputs": [
        {
          "internalType": "address",
          "name": "owner",
          "type": "address"
        }
      ],
      "name": "balanceOf",
      "outputs": [
        {
          "internalType": "uint256",
          "name": "",
          "type": "uint256"
        }
      ],
      "stateMutability": "view",
      "type": "function"
    },
    {
      "inputs": [
        {
          "internalType": "uint256",
          "name": "tokenId",
          "type": "uint256"
        }
      ],
      "name": "burn",
      "outputs": [],
      "stateMutability": "nonpayable",
      "type": "function"
    },
    {
      "inputs": [
        {
          "internalType": "uint256",
          "name": "tokenId",
          "type": "uint256"
        }
      ],
      "name": "getApproved",
      "outputs": [
        {
          "internalType": "address",
          "name": "",
          "type": "address"
        }
      ],
      "stateMutability": "view",
      "type": "function"
    },
    {
      "inputs": [
        {
          "internalType": "address",
          "name": "owner",
          "type": "address"
        },
        {
          "internalType": "address",
          "name": "operator",
          "type": "address"
        }
      ],
      "name": "isApprovedForAll",
      "outputs": [
        {
          "internalType": "bool",
          "name": "",
          "type": "bool"
        }
      ],
      "stateMutability": "view",
      "type": "function"
    },
    {
      "inputs": [
        {
          "internalType": "uint256",
          "name": "tokenId",
          "type": "uint256"
        }
      ],
      "name": "meta",
      "outputs": [
        {
          "internalType": "string",
          "name": "",
          "type": "string"
        }
      ],
      "stateMutability": "view",
      "type": "function"
    },
    {
      "inputs": [
        {
          "internalType": "address",
          "name": "to",
          "type": "address"
        },
        {
          "internalType": "uint256",
          "name": "tokenId",
          "type": "uint256"
        },
        {
          "internalType": "string",
          "name": "uri",
          "type": "string"
        }
      ],
      "name": "mint",
      "outputs": [],
      "stateMutability": "nonpayable",
      "type": "function"
    },
    {
      "inputs": [],
      "name": "name",
      "outputs": [
        {
          "internalType": "string",
          "name": "",
          "type": "string"
        }
      ],
      "stateMutability": "view",
      "type": "function"
    },
    {
      "inputs": [],
      "name": "owner",
      "outputs": [
        {
          "internalType": "address",
          "name": "",
          "type": "address"
        }
      ],
      "stateMutability": "view",
      "type": "function"
    },
    {
      "inputs": [
        {
          "internalType": "uint256",
          "name": "tokenId",
          "type": "uint256"
        }
      ],
      "name": "ownerOf",
      "outputs": [
        {
          "internalType": "address",
          "name": "",
          "type": "address"
        }
      ],
      "stateMutability": "view",
      "type": "function"
    },
    {
      "inputs": [],
      "name": "renounceOwnership",
      "outputs": [],
      "stateMutability": "nonpayable",
      "type": "function"
    },
    {
      "inputs": [
        {
          "internalType": "address",
          "name": "to",
          "type": "address"
        },
        {
          "internalType": "uint256",
          "name": "tokenId",
          "type": "uint256"
        },
        {
          "internalType": "string",
          "name": "uri",
          "type": "string"
        }
      ],
      "name": "safeMint",
      "outputs": [],
      "stateMutability": "nonpayable",
      "type": "function"
    },
    {
      "inputs": [
        {
          "internalType": "address",
          "name": "from",
          "type": "address"
        },
        {
          "internalType": "address",
          "name": "to",
          "type": "address"
        },
        {
          "internalType": "uint256",
          "name": "tokenId",
          "type": "uint256"
        }
      ],
      "name": "safeTransferFrom",
      "outputs": [],
      "stateMutability": "nonpayable",
      "type": "function"
    },
    {
      "inputs": [
        {
          "internalType": "address",
          "name": "from",
          "type": "address"
        },
        {
          "internalType": "address",
          "name": "to",
          "type": "address"
        },
        {
          "internalType": "uint256",
          "name": "tokenId",
          "type": "uint256"
        },
        {
          "internalType": "bytes",
          "name": "data",
          "type": "bytes"
        }
      ],
      "name": "safeTransferFrom",
      "outputs": [],
      "stateMutability": "nonpayable",
      "type": "function"
    },
    {
      "inputs": [
        {
          "internalType": "address",
          "name": "operator",
          "type": "address"
        },
        {
          "internalType": "bool",
          "name": "approved",
          "type": "bool"
        }
      ],
      "name": "setApprovalForAll",
      "outputs": [],
      "stateMutability": "nonpayable",
      "type": "function"
    },
    {
      "inputs": [
        {
          "internalType": "bytes4",
          "name": "interfaceId",
          "type": "bytes4"
        }
      ],
      "name": "supportsInterface",
      "outputs": [
        {
          "internalType": "bool",
          "name": "",
          "type": "bool"
        }
      ],
      "stateMutability": "view",
      "type": "function"
    },
    {
      "inputs": [],
      "name": "symbol",
      "outputs": [
        {
          "internalType": "string",
          "name": "",
          "type": "string"
        }
      ],
      "stateMutability": "view",
      "type": "function"
    },
    {
      "inputs": [
        {
          "internalType": "uint256",
          "name": "tokenId",
          "type": "uint256"
        }
      ],
      "name": "tokenURI",
      "outputs": [
        {
          "internalType": "string",
          "name": "",
          "type": "string"
        }
      ],
      "stateMutability": "view",
      "type": "function"
    },
    {
      "inputs": [
        {
          "internalType": "address",
          "name": "from",
          "type": "address"
        },
        {
          "internalType": "address",
          "name": "to",
          "type": "address"
        },
        {
          "internalType": "uint256",
          "name": "tokenId",
          "type": "uint256"
        }
      ],
      "name": "transferFrom",
      "outputs": [],
      "stateMutability": "nonpayable",
      "type": "function"
    },
    {
      "inputs": [
        {
          "internalType": "address",
          "name": "newOwner",
          "type": "address"
        }
      ],
      "name": "transferOwnership",
      "outputs": [],
      "stateMutability": "nonpayable",
      "type": "function"
    }
  ],
  "bytecode": "0x608060405234801561001057600080fd5b50336040518060400160405280600581526020017f46756e46540000000000000000000000000000000000000000000000000000008152506040518060400160405280600381526020017f46554e0000000000000000000000000000000000000000000000000000000000815250816000908161008d919061043d565b50806001908161009d919061043d565b505050600073ffffffffffffffffffffffffffffffffffffffff168173ffffffffffffffffffffffffffffffffffffffff16036101125760006040517f1e4fbdf70000000000000000000000000000000000000000000000000000000081526004016101099190610550565b60405180910390fd5b6101218161012760201b60201c565b5061056b565b6000600660009054906101000a900473ffffffffffffffffffffffffffffffffffffffff16905081600660006101000a81548173ffffffffffffffffffffffffffffffffffffffff021916908373ffffffffffffffffffffffffffffffffffffffff1602179055508173ffffffffffffffffffffffffffffffffffffffff168173ffffffffffffffffffffffffffffffffffffffff167f8be0079c531659141344cd1fd0a4f28419497f9722a3daafe3b4186f6b6457e060405160405180910390a35050565b600081519050919050565b7f4e487b7100000000000000000000000000000000000000000000000000000000600052604160045260246000fd5b7f4e487b7100000000000000000000000000000000000000000000000000000000600052602260045260246000fd5b6000600282049050600182168061026e57607f821691505b60208210810361028157610280610227565b5b50919050565b60008190508160005260206000209050919050565b60006020601f8301049050919050565b600082821b905092915050565b6000600883026102e97fffffffffffffffffffffffffffffffffffffffffffffffffffffffffffffffff826102ac565b6102f386836102ac565b95508019841693508086168417925050509392505050565b6000819050919050565b6000819050919050565b600061033a6103356103308461030b565b610315565b61030b565b9050919050565b6000819050919050565b6103548361031f565b61036861036082610341565b8484546102b9565b825550505050565b600090565b61037d610370565b61038881848461034b565b505050565b5b818110156103ac576103a1600082610375565b60018101905061038e565b5050565b601f8211156103f1576103c281610287565b6103cb8461029c565b810160208510156103da578190505b6103ee6103e68561029c565b83018261038d565b50505b505050565b600082821c905092915050565b6000610414600019846008026103f6565b1980831691505092915050565b600061042d8383610403565b9150826002028217905092915050565b610446826101ed565b67ffffffffffffffff81111561045f5761045e6101f8565b5b6104698254610256565b6104748282856103b0565b600060209050601f8311600181146104a75760008415610495578287015190505b61049f8582610421565b865550610507565b601f1984166104b586610287565b60005b828110156104dd578489015182556001820191506020850194506020810190506104b8565b868310156104fa57848901516104f6601f891682610403565b8355505b6001600288020188555050505b505050505050565b600073ffffffffffffffffffffffffffffffffffffffff82169050919050565b600061053a8261050f565b9050919050565b61054a8161052f565b82525050565b60006020820190506105656000830184610541565b92915050565b6125b48061057a6000396000f3fe608060405234801561001057600080fd5b506004361061012c5760003560e01c80638da5cb5b116100ad578063cd279c7c11610071578063cd279c7c1461032d578063cd5cfdaf14610349578063d3fc986414610379578063e985e9c514610395578063f2fde38b146103c55761012c565b80638da5cb5b1461028957806395d89b41146102a7578063a22cb465146102c5578063b88d4fde146102e1578063c87b56dd146102fd5761012c565b806342842e0e116100f457806342842e0e146101e757806342966c68146102035780636352211e1461021f57806370a082311461024f578063715018a61461027f5761012c565b806301ffc9a71461013157806306fdde0314610161578063081812fc1461017f578063095ea7b3146101af57806323b872dd146101cb575b600080fd5b61014b60048036038101906101469190611a70565b6103e1565b6040516101589190611ab8565b60405180910390f35b6101696104c3565b6040516101769190611b63565b60405180910390f35b61019960048036038101906101949190611bbb565b610555565b6040516101a69190611c29565b60405180910390f35b6101c960048036038101906101c49190611c70565b610571565b005b6101e560048036038101906101e09190611cb0565b610587565b005b61020160048036038101906101fc9190611cb0565b610689565b005b61021d60048036038101906102189190611bbb565b6106a9565b005b61023960048036038101906102349190611bbb565b6106c0565b6040516102469190611c29565b60405180910390f35b61026960048036038101906102649190611d03565b6106d2565b6040516102769190611d3f565b60405180910390f35b61028761078c565b005b6102916107a0565b60405161029e9190611c29565b60405180910390f35b6102af6107ca565b6040516102bc9190611b63565b60405180910390f35b6102df60048036038101906102da9190611d86565b61085c565b005b6102fb60048036038101906102f69190611efb565b610872565b005b61031760048036038101906103129190611bbb565b610897565b6040516103249190611b63565b60405180910390f35b6103476004803603810190610342919061201f565b610900565b005b610363600480360381019061035e9190611bbb565b610921565b6040516103709190611b63565b60405180910390f35b610393600480360381019061038e919061201f565b6109d0565b005b6103af60048036038101906103aa919061208e565b6109f1565b6040516103bc9190611ab8565b60405180910390f35b6103df60048036038101906103da9190611d03565b610a85565b005b60007f80ac58cd000000000000000000000000000000000000000000000000000000007bffffffffffffffffffffffffffffffffffffffffffffffffffffffff1916827bffffffffffffffffffffffffffffffffffffffffffffffffffffffff191614806104ac57507f5b5e139f000000000000000000000000000000000000000000000000000000007bffffffffffffffffffffffffffffffffffffffffffffffffffffffff1916827bffffffffffffffffffffffffffffffffffffffffffffffffffffffff1916145b806104bc57506104bb82610b0b565b5b9050919050565b6060600080546104d2906120fd565b80601f01602080910402602001604051908101604052809291908181526020018280546104fe906120fd565b801561054b5780601f106105205761010080835404028352916020019161054b565b820191906000526020600020905b81548152906001019060200180831161052e57829003601f168201915b5050505050905090565b600061056082610b75565b5061056a82610bfd565b9050919050565b610583828261057e610c3a565b610c42565b5050565b600073ffffffffffffffffffffffffffffffffffffffff168273ffffffffffffffffffffffffffffffffffffffff16036105f95760006040517f64a0ae920000000000000000000000000000000000000000000000000000000081526004016105f09190611c29565b60405180910390fd5b600061060d8383610608610c3a565b610c54565b90508373ffffffffffffffffffffffffffffffffffffffff168173ffffffffffffffffffffffffffffffffffffffff1614610683578382826040517f64283d7b00000000000000000000000000000000000000000000000000000000815260040161067a9392919061212e565b60405180910390fd5b50505050565b6106a483838360405180602001604052806000815250610872565b505050565b6106bc6000826106b7610c3a565b610c54565b5050565b60006106cb82610b75565b9050919050565b60008073ffffffffffffffffffffffffffffffffffffffff168273ffffffffffffffffffffffffffffffffffffffff16036107455760006040517f89c62b6400000000000000000000000000000000000000000000000000000000815260040161073c9190611c29565b60405180910390fd5b600360008373ffffffffffffffffffffffffffffffffffffffff1673ffffffffffffffffffffffffffffffffffffffff168152602001908152602001600020549050919050565b610794610e6e565b61079e6000610ef5565b565b6000600660009054906101000a900473ffffffffffffffffffffffffffffffffffffffff16905090565b6060600180546107d9906120fd565b80601f0160208091040260200160405190810160405280929190818152602001828054610805906120fd565b80156108525780601f1061082757610100808354040283529160200191610852565b820191906000526020600020905b81548152906001019060200180831161083557829003601f168201915b5050505050905090565b61086e610867610c3a565b8383610fbb565b5050565b61087d848484610587565b610891610888610c3a565b8585858561112a565b50505050565b60606108a282610b75565b5060006108ad6112db565b905060008151116108cd57604051806020016040528060008152506108f8565b806108d7846112f2565b6040516020016108e89291906121a1565b6040516020818303038152906040525b915050919050565b610908610e6e565b61091283836113c0565b61091c82826113de565b505050565b606061092c826106c0565b5060076000838152602001908152602001600020805461094b906120fd565b80601f0160208091040260200160405190810160405280929190818152602001828054610977906120fd565b80156109c45780601f10610999576101008083540402835291602001916109c4565b820191906000526020600020905b8154815290600101906020018083116109a757829003601f168201915b50505050509050919050565b6109d8610e6e565b6109e2838361140d565b6109ec82826113de565b505050565b6000600560008473ffffffffffffffffffffffffffffffffffffffff1673ffffffffffffffffffffffffffffffffffffffff16815260200190815260200160002060008373ffffffffffffffffffffffffffffffffffffffff1673ffffffffffffffffffffffffffffffffffffffff16815260200190815260200160002060009054906101000a900460ff16905092915050565b610a8d610e6e565b600073ffffffffffffffffffffffffffffffffffffffff168173ffffffffffffffffffffffffffffffffffffffff1603610aff5760006040517f1e4fbdf7000000000000000000000000000000000000000000000000000000008152600401610af69190611c29565b60405180910390fd5b610b0881610ef5565b50565b60007f01ffc9a7000000000000000000000000000000000000000000000000000000007bffffffffffffffffffffffffffffffffffffffffffffffffffffffff1916827bffffffffffffffffffffffffffffffffffffffffffffffffffffffff1916149050919050565b600080610b8183611506565b9050600073ffffffffffffffffffffffffffffffffffffffff168173ffffffffffffffffffffffffffffffffffffffff1603610bf457826040517f7e273289000000000000000000000000000000000000000000000000000000008152600401610beb9190611d3f565b60405180910390fd5b80915050919050565b60006004600083815260200190815260200160002060009054906101000a900473ffffffffffffffffffffffffffffffffffffffff169050919050565b600033905090565b610c4f8383836001611543565b505050565b600080610c6084611506565b9050600073ffffffffffffffffffffffffffffffffffffffff168373ffffffffffffffffffffffffffffffffffffffff1614610ca257610ca1818486611708565b5b600073ffffffffffffffffffffffffffffffffffffffff168173ffffffffffffffffffffffffffffffffffffffff1614610d3357610ce4600085600080611543565b6001600360008373ffffffffffffffffffffffffffffffffffffffff1673ffffffffffffffffffffffffffffffffffffffff168152602001908152602001600020600082825403925050819055505b600073ffffffffffffffffffffffffffffffffffffffff168573ffffffffffffffffffffffffffffffffffffffff1614610db6576001600360008773ffffffffffffffffffffffffffffffffffffffff1673ffffffffffffffffffffffffffffffffffffffff168152602001908152602001600020600082825401925050819055505b846002600086815260200190815260200160002060006101000a81548173ffffffffffffffffffffffffffffffffffffffff021916908373ffffffffffffffffffffffffffffffffffffffff160217905550838573ffffffffffffffffffffffffffffffffffffffff168273ffffffffffffffffffffffffffffffffffffffff167fddf252ad1be2c89b69c2b068fc378daa952ba7f163c4a11628f55a4df523b3ef60405160405180910390a4809150509392505050565b610e76610c3a565b73ffffffffffffffffffffffffffffffffffffffff16610e946107a0565b73ffffffffffffffffffffffffffffffffffffffff1614610ef357610eb7610c3a565b6040517f118cdaa7000000000000000000000000000000000000000000000000000000008152600401610eea9190611c29565b60405180910390fd5b565b6000600660009054906101000a900473ffffffffffffffffffffffffffffffffffffffff16905081600660006101000a81548173ffffffffffffffffffffffffffffffffffffffff021916908373ffffffffffffffffffffffffffffffffffffffff1602179055508173ffffffffffffffffffffffffffffffffffffffff168173ffffffffffffffffffffffffffffffffffffffff167f8be0079c531659141344cd1fd0a4f28419497f9722a3daafe3b4186f6b6457e060405160405180910390a35050565b600073ffffffffffffffffffffffffffffffffffffffff168273ffffffffffffffffffffffffffffffffffffffff160361102c57816040517f5b08ba180000000000000000000000000000000000000000000000000000000081526004016110239190611c29565b60405180910390fd5b80600560008573ffffffffffffffffffffffffffffffffffffffff1673ffffffffffffffffffffffffffffffffffffffff16815260200190815260200160002060008473ffffffffffffffffffffffffffffffffffffffff1673ffffffffffffffffffffffffffffffffffffffff16815260200190815260200160002060006101000a81548160ff0219169083151502179055508173ffffffffffffffffffffffffffffffffffffffff168373ffffffffffffffffffffffffffffffffffffffff167f17307eab39ab6107e8899845ad3d59bd9653f200f220920489ca2b5937696c318360405161111d9190611ab8565b60405180910390a3505050565b60008373ffffffffffffffffffffffffffffffffffffffff163b11156112d4578273ffffffffffffffffffffffffffffffffffffffff1663150b7a02868685856040518563ffffffff1660e01b8152600401611189949392919061221a565b6020604051808303816000875af19250505080156111c557506040513d601f19601f820116820180604052508101906111c2919061227b565b60015b611249573d80600081146111f5576040519150601f19603f3d011682016040523d82523d6000602084013e6111fa565b606091505b50600081510361124157836040517f64a0ae920000000000000000000000000000000000000000000000000000000081526004016112389190611c29565b60405180910390fd5b805160208201fd5b63150b7a0260e01b7bffffffffffffffffffffffffffffffffffffffffffffffffffffffff1916817bffffffffffffffffffffffffffffffffffffffffffffffffffffffff1916146112d257836040517f64a0ae920000000000000000000000000000000000000000000000000000000081526004016112c99190611c29565b60405180910390fd5b505b5050505050565b606060405180602001604052806000815250905090565b606060006001611301846117cc565b01905060008167ffffffffffffffff8111156113205761131f611dd0565b5b6040519080825280601f01601f1916602001820160405280156113525781602001600182028036833780820191505090505b509050600082602083010190505b6001156113b5578080600190039150507f3031323334353637383961626364656600000000000000000000000000000000600a86061a8153600a85816113a9576113a86122a8565b5b04945060008503611360575b819350505050919050565b6113da82826040518060200160405280600081525061191f565b5050565b6113e7826106c0565b50806007600084815260200190815260200160002090816114089190612483565b505050565b600073ffffffffffffffffffffffffffffffffffffffff168273ffffffffffffffffffffffffffffffffffffffff160361147f5760006040517f64a0ae920000000000000000000000000000000000000000000000000000000081526004016114769190611c29565b60405180910390fd5b600061148d83836000610c54565b9050600073ffffffffffffffffffffffffffffffffffffffff168173ffffffffffffffffffffffffffffffffffffffff16146115015760006040517f73c6ac6e0000000000000000000000000000000000000000000000000000000081526004016114f89190611c29565b60405180910390fd5b505050565b60006002600083815260200190815260200160002060009054906101000a900473ffffffffffffffffffffffffffffffffffffffff169050919050565b808061157c5750600073ffffffffffffffffffffffffffffffffffffffff168273ffffffffffffffffffffffffffffffffffffffff1614155b156116b057600061158c84610b75565b9050600073ffffffffffffffffffffffffffffffffffffffff168373ffffffffffffffffffffffffffffffffffffffff16141580156115f757508273ffffffffffffffffffffffffffffffffffffffff168173ffffffffffffffffffffffffffffffffffffffff1614155b801561160a575061160881846109f1565b155b1561164c57826040517fa9fbf51f0000000000000000000000000000000000000000000000000000000081526004016116439190611c29565b60405180910390fd5b81156116ae57838573ffffffffffffffffffffffffffffffffffffffff168273ffffffffffffffffffffffffffffffffffffffff167f8c5be1e5ebec7d5bd14f71427d1e84f3dd0314c0f7b2291e5b200ac8c7c3b92560405160405180910390a45b505b836004600085815260200190815260200160002060006101000a81548173ffffffffffffffffffffffffffffffffffffffff021916908373ffffffffffffffffffffffffffffffffffffffff16021790555050505050565b611713838383611943565b6117c757600073ffffffffffffffffffffffffffffffffffffffff168373ffffffffffffffffffffffffffffffffffffffff160361178857806040517f7e27328900000000000000000000000000000000000000000000000000000000815260040161177f9190611d3f565b60405180910390fd5b81816040517f177e802f0000000000000000000000000000000000000000000000000000000081526004016117be929190612555565b60405180910390fd5b505050565b600080600090507a184f03e93ff9f4daa797ed6e38ed64bf6a1f010000000000000000831061182a577a184f03e93ff9f4daa797ed6e38ed64bf6a1f01000000000000000083816118205761181f6122a8565b5b0492506040810190505b6d04ee2d6d415b85acef81000000008310611867576d04ee2d6d415b85acef8100000000838161185d5761185c6122a8565b5b0492506020810190505b662386f26fc10000831061189657662386f26fc10000838161188c5761188b6122a8565b5b0492506010810190505b6305f5e10083106118bf576305f5e10083816118b5576118b46122a8565b5b0492506008810190505b61271083106118e45761271083816118da576118d96122a8565b5b0492506004810190505b6064831061190757606483816118fd576118fc6122a8565b5b0492506002810190505b600a8310611916576001810190505b80915050919050565b611929838361140d565b61193e611934610c3a565b600085858561112a565b505050565b60008073ffffffffffffffffffffffffffffffffffffffff168373ffffffffffffffffffffffffffffffffffffffff16141580156119fb57508273ffffffffffffffffffffffffffffffffffffffff168473ffffffffffffffffffffffffffffffffffffffff1614806119bc57506119bb84846109f1565b5b806119fa57508273ffffffffffffffffffffffffffffffffffffffff166119e283610bfd565b73ffffffffffffffffffffffffffffffffffffffff16145b5b90509392505050565b6000604051905090565b600080fd5b600080fd5b60007fffffffff0000000000000000000000000000000000000000000000000000000082169050919050565b611a4d81611a18565b8114611a5857600080fd5b50565b600081359050611a6a81611a44565b92915050565b600060208284031215611a8657611a85611a0e565b5b6000611a9484828501611a5b565b91505092915050565b60008115159050919050565b611ab281611a9d565b82525050565b6000602082019050611acd6000830184611aa9565b92915050565b600081519050919050565b600082825260208201905092915050565b60005b83811015611b0d578082015181840152602081019050611af2565b60008484015250505050565b6000601f19601f8301169050919050565b6000611b3582611ad3565b611b3f8185611ade565b9350611b4f818560208601611aef565b611b5881611b19565b840191505092915050565b60006020820190508181036000830152611b7d8184611b2a565b905092915050565b6000819050919050565b611b9881611b85565b8114611ba357600080fd5b50565b600081359050611bb581611b8f565b92915050565b600060208284031215611bd157611bd0611a0e565b5b6000611bdf84828501611ba6565b91505092915050565b600073ffffffffffffffffffffffffffffffffffffffff82169050919050565b6000611c1382611be8565b9050919050565b611c2381611c08565b82525050565b6000602082019050611c3e6000830184611c1a565b92915050565b611c4d81611c08565b8114611c5857600080fd5b50565b600081359050611c6a81611c44565b92915050565b60008060408385031215611c8757611c86611a0e565b5b6000611c9585828601611c5b565b9250506020611ca685828601611ba6565b9150509250929050565b600080600060608486031215611cc957611cc8611a0e565b5b6000611cd786828701611c5b565b9350506020611ce886828701611c5b565b9250506040611cf986828701611ba6565b9150509250925092565b600060208284031215611d1957611d18611a0e565b5b6000611d2784828501611c5b565b91505092915050565b611d3981611b85565b82525050565b6000602082019050611d546000830184611d30565b92915050565b611d6381611a9d565b8114611d6e57600080fd5b50565b600081359050611d8081611d5a565b92915050565b60008060408385031215611d9d57611d9c611a0e565b5b6000611dab85828601611c5b565b9250506020611dbc85828601611d71565b9150509250929050565b600080fd5b600080fd5b7f4e487b7100000000000000000000000000000000000000000000000000000000600052604160045260246000fd5b611e0882611b19565b810181811067ffffffffffffffff82111715611e2757611e26611dd0565b5b80604052505050565b6000611e3a611a04565b9050611e468282611dff565b919050565b600067ffffffffffffffff821115611e6657611e65611dd0565b5b611e6f82611b19565b9050602081019050919050565b82818337600083830152505050565b6000611e9e611e9984611e4b565b611e30565b905082815260208101848484011115611eba57611eb9611dcb565b5b611ec5848285611e7c565b509392505050565b600082601f830112611ee257611ee1611dc6565b5b8135611ef2848260208601611e8b565b91505092915050565b60008060008060808587031215611f1557611f14611a0e565b5b6000611f2387828801611c5b565b9450506020611f3487828801611c5b565b9350506040611f4587828801611ba6565b925050606085013567ffffffffffffffff811115611f6657611f65611a13565b5b611f7287828801611ecd565b91505092959194509250565b600067ffffffffffffffff821115611f9957611f98611dd0565b5b611fa282611b19565b9050602081019050919050565b6000611fc2611fbd84611f7e565b611e30565b905082815260208101848484011115611fde57611fdd611dcb565b5b611fe9848285611e7c565b509392505050565b600082601f83011261200657612005611dc6565b5b8135612016848260208601611faf565b91505092915050565b60008060006060848603121561203857612037611a0e565b5b600061204686828701611c5b565b935050602061205786828701611ba6565b925050604084013567ffffffffffffffff81111561207857612077611a13565b5b61208486828701611ff1565b9150509250925092565b600080604083850312156120a5576120a4611a0e565b5b60006120b385828601611c5b565b92505060206120c485828601611c5b565b9150509250929050565b7f4e487b7100000000000000000000000000000000000000000000000000000000600052602260045260246000fd5b6000600282049050600182168061211557607f821691505b602082108103612128576121276120ce565b5b50919050565b60006060820190506121436000830186611c1a565b6121506020830185611d30565b61215d6040830184611c1a565b949350505050565b600081905092915050565b600061217b82611ad3565b6121858185612165565b9350612195818560208601611aef565b80840191505092915050565b60006121ad8285612170565b91506121b98284612170565b91508190509392505050565b600081519050919050565b600082825260208201905092915050565b60006121ec826121c5565b6121f681856121d0565b9350612206818560208601611aef565b61220f81611b19565b840191505092915050565b600060808201905061222f6000830187611c1a565b61223c6020830186611c1a565b6122496040830185611d30565b818103606083015261225b81846121e1565b905095945050505050565b60008151905061227581611a44565b92915050565b60006020828403121561229157612290611a0e565b5b600061229f84828501612266565b91505092915050565b7f4e487b7100000000000000000000000000000000000000000000000000000000600052601260045260246000fd5b60008190508160005260206000209050919050565b60006020601f8301049050919050565b600082821b905092915050565b6000600883026123397fffffffffffffffffffffffffffffffffffffffffffffffffffffffffffffffff826122fc565b61234386836122fc565b95508019841693508086168417925050509392505050565b6000819050919050565b600061238061237b61237684611b85565b61235b565b611b85565b9050919050565b6000819050919050565b61239a83612365565b6123ae6123a682612387565b848454612309565b825550505050565b600090565b6123c36123b6565b6123ce818484612391565b505050565b5b818110156123f2576123e76000826123bb565b6001810190506123d4565b5050565b601f82111561243757612408816122d7565b612411846122ec565b81016020851015612420578190505b61243461242c856122ec565b8301826123d3565b50505b505050565b600082821c905092915050565b600061245a6000198460080261243c565b1980831691505092915050565b60006124738383612449565b9150826002028217905092915050565b61248c82611ad3565b67ffffffffffffffff8111156124a5576124a4611dd0565b5b6124af82546120fd565b6124ba8282856123f6565b600060209050601f8311600181146124ed57600084156124db578287015190505b6124e58582612467565b86555061254d565b601f1984166124fb866122d7565b60005b82811015612523578489015182556001820191506020850194506020810190506124fe565b86831015612540578489015161253c601f891682612449565b8355505b6001600288020188555050505b505050505050565b600060408201905061256a6000830185611c1a565b6125776020830184611d30565b939250505056fea26469706673582212205e440fc69271c0ba1172303213baa2422886421c05db1af3be4b05c29231d08564736f6c634300081c0033",
  "linkReferences": {},
  "deployedLinkReferences": {}
}